:1000000024C03EC03DC03CC03BC03AC039C038C02F
:1000100037C0BFC135C034C033C032C031C030C0BA
:10002000C3C1C0C0FEC0F5C002C101C1ACC0FFC0A9
:10003000FEC0FDC0CEC0B1C0FAC0F9C0D7C0C0C0BC
:10004000F6C0A6C0F4C0F3C0BEC011241FBECFE5E9
:10005000D2E0DEBFCDBF10E0A0E6B0E0E2E8F9E01C
:1000600002C005900D92A03AB107D9F711E0A0EABD
:10007000B0E001C01D92A730B107E1F714D37FC4EF
:10008000BFCF089580E090E008954EE150E066EA29
:1000900070E080E090E030D486EA90E0089581E05E
:1000A00090E0089581E090E00895892B11F0C19AC5
:1000B0000895C1980895DC012C91E4ECF0E02083D0
:1000C00011968C918093C5008081918108958093D1
:1000D000C4009093C5008093A4009093A50084EA87
:1000E00090E00895FC018081A4ECB0E08C938181C4
:1000F0008093C50082818093C60083818093C7006E
:100100006D917D918D919C9108959B01AB01BC01F6
:100110004093C4005093C5006093C6007093C7001D
:100120002093A0008091C5008093A1008091C6001B
:100130008093A2008091C7008093A30080EA90E0A2
:10014000089563E070E082E990E01AC262E070E036
:1001500086E990E015C2CF93DF9300D01F92CDB710
:10016000DEB79091CA00482F552747FD5095652F5F
:10017000752FFA01E456F109E431F10508F057C092
:10018000EF5EFF4F099480916000909161002AC05A
:10019000809162009091630025C06AE070E084E67F
:1001A00090E043C080916E00898380916F008A83C4
:1001B000809170008B8363E070E0CE01019635C0C2
:1001C0008091710002C080917200992787FD9095FF
:1001D00009C080917100981754F581E090E065DFC7
:1001E00080E090E074DF62E070E01FC080917100F9
:1001F0009817ECF4892F992787FD909546DFFC012D
:1002000001900020E9F7BF0161507109681B790B6B
:100210000CC060917300772767FD709584E790E0CC
:1002200004C061E070E089E990E0AAD101C089DFF3
:100230000F900F900F90DF91CF9108959091CA0089
:100240008E34B1F044F4863409F58EE1EAECF0E046
:10025000A4E7B0E012C0843519F0873599F016C0D4
:100260008AEC90E028DF909363008093620009C0DD
:100270008AE0EAECF0E0A4E6B0E001900D928A9505
:10028000E1F764CF809172009817DCF35ACF0098A1
:1002900097B1962B97B996B1982B96B9603831F4EF
:1002A0008FE19EE40197F1F700C00000379A0895AE
:1002B00060E086E0ECCF009A3798089597B1907C83
:1002C00097B997B1982B97B9369A3699FECF84B1E2
:1002D00025B190E0922B0895CF92DF92EF92FF929A
:1002E000CF93DF936A017B01E9DFEC0120E030E08E
:1002F00040E85AE3C701B60143D26B017C01BE015D
:1003000080E090E000D29B01AC01C701B60138D279
:10031000DF91CF91FF90EF90DF90CF900895CF9332
:10032000DF9300D000D0CDB7DEB79A01AB012983AF
:100330003A834B835C83C2DFBC0180E090E0E3D171
:1003400029813A814B815C811BD220E030E040E87A
:100350005AE316D20F900F900F900F90DF91CF912C
:1003600008958627682F62956827062E66956695FC
:100370006025062E669560256770082E892F669584
:1003800007946795902D8627069467959025862774
:1003900008951F920F920FB60F921124689A0F9032
:1003A0000FBE0F901F9018951F920F920FB60F92CD
:1003B00011248F938091060180FF03C089B78D7F40
:1003C00089BF80E48EB98091060182608093060126
:1003D0008FB1809304018F910F900FBE0F901F90EB
:1003E0001895D59A0895D598089590E29ABB9AB336
:1003F0009F729ABB9BB390659BBB979A9BB790618A
:100400009BBF880F880F88658DB9809106018E7F0C
:1004100080930601809106018D7F80930601809173
:1004200006018B7F8093060180910601877F809370
:1004300006018091060180618093060110920401FB
:1004400008959EB19F7039F0809106018460809379
:10045000060180E00895909106019D7F909306012A
:10046000909106019B7F909306018FB980910601C0
:1004700080FF06C088B7826088BF89B7826089BF65
:100480008091060182FB882780F991E089270895F1
:100490008091040108958091060181FFFCCF0895A9
:1004A0000F931F93CF93DF9384E2CBDF8823E1F395
:1004B000F2DF84E2C6DF8823E1F3EDDFC0E0D0E0C5
:1004C0008091E60090E08E010A511F4FC817D907AE
:1004D0005CF4F8018081B5DF8823D9F3DCDF219655
:1004E000CE31D10569F70BC0F8018081AADF8823DE
:1004F000D9F3D1DF80910601806180930601DF91FD
:10050000CF911F910F910895FF920F931F93CF9357
:10051000DF93C1DF80910401843229F481E291DF0D
:100520008823E1F3F6CF8093C80081E08093050132
:1005300083E087DF09EC10E0C1E0D0E0ACDFF090B1
:10054000040183E07EDFF801F1928F0180910501C3
:100550008F5F809305018091C80090E0C817D9078C
:1005600021F02196CE31D10549F7809106018F7E89
:1005700080930601DF91CF911F910F91FF90089515
:10058000EF92FF920F931F93CF93DF93EB016A31AA
:10059000710574F5262F2B5F2093E600A7EEB0E0DF
:1005A000FC019F01281B390B2C173D071CF42191DE
:1005B0002D93F7CF8E010A511F4FF801118286EE5D
:1005C000E82E80E0F82E8FEF9FEF9701265E3040F7
:1005D000C217D3072CF0F70161917F01C2DEF5CF7E
:1005E000F8018283938383E2848381E090E002C0F8
:1005F00080E090E0DF91CF911F910F91FF90EF90FD
:100600000895EF92FF920F931F93CF93DF93009182
:10061000C80010E0C8ECD0E08FEF9FEF780124E035
:10062000E21AF1089E01285C30402E153F051CF4AB
:10063000699197DEF7CF08531F4FF8013297208159
:1006400030E0322F2227F80133974081242B41E0FC
:1006500050E02817390711F040E050E0CA01DF915F
:10066000CF911F910F91FF90EF900895CF9B04C001
:1006700080910601877F03C0809106018860809386
:1006800006018091060183FF02C0ABDE05C0ABDE30
:1006900080E0D7DE8823E1F38091060183FB882781
:1006A00080F990E00895B99A9CDE81E09EDE78940E
:1006B0002FE788E391E0215080409040E1F700C0AF
:1006C000000068E070E08BE990E05ADF80E0B9DE7E
:1006D000CDDF892BE9F3DFDEDBDE843281F414DF4A
:1006E00090DF892B11F42DDDF3CF8091C9009FE9B4
:1006F000980F9E3110F42FDDEBCFA0DDE9CF8E3FB8
:1007000039F7CEDEE5CFE89409C097FB3EF490952B
:100710008095709561957F4F8F4F9F4F9923A9F0DA
:10072000F92F96E9BB279395F69587957795679569
:10073000B795F111F8CFFAF4BB0F11F460FF1BC0AD
:100740006F5F7F4F8F4F9F4F16C0882311F096E940
:1007500011C0772321F09EE8872F762F05C06623EE
:1007600071F096E8862F70E060E02AF09A95660FA7
:10077000771F881FDAF7880F9695879597F9089560
:100780000AD080C071D028F076D018F0952309F0F7
:1007900062C067C0ABC087D0A8F39923D9F35523B3
:1007A000C9F3950F50E0551FAA27EE27FF27BB2757
:1007B00000240894679520F4E20FF31FB41F0A1E6B
:1007C000220F331F441FAA1F6695A9F7779530F4AF
:1007D000F30FB41F0A1E121E08F46395330F441F53
:1007E000AA1F221F769599F7879520F4B40F0A1E49
:1007F000121E631F440FAA1F221F331F8695A9F7DD
:10080000862F712D602D11249F5750408AF0E1F002
:1008100088234AF0EE0FFF1FBB1F661F771F881F3C
:1008200091505040A9F79E3F510570F014C05EC032
:100830005F3FECF3983EDCF3869577956795B79527
:10084000F795E7959F5FC1F7FE2B880F911D969551
:10085000879597F9089597F99F6780E870E060E0C1
:1008600008959FEF80EC089500240A941616170649
:1008700018060906089500240A9412161306140691
:1008800005060895092E0394000C11F4882352F0F4
:10089000BB0F40F4BF2B11F460FF04C06F5F7F4FAC
:1008A0008F4F9F4F089557FD9058440F551F59F093
:1008B0005F3F71F04795880F97FB991F61F09F3F4D
:1008C00079F087950895121613061406551FF2CF76
:1008D0004695F1DF08C0161617061806991FF1CFC6
:1008E00086957105610508940895E894BB276627ED
:1008F0007727CB0197F90895FB019F01E8944230D7
:10090000BCF04532ACF44A3029F497FB1EF49095C4
:1009100081959F4F642F77271ED0805D8A330CF01E
:10092000895D8193CB010097A9F716F45DE251939D
:100930001082C90100C0DC01FC01672F719177238F
:10094000E1F7329704C07C916D9370836291AE178A
:10095000BF07C8F30895AA1BBB1B51E107C0AA1F1C
:10096000BB1FA617B70710F0A61BB70B881F991F50
:100970005A95A9F780959095BC01CD010895F894FA
:02098000FFCFA7
:100982006800030064756D6D7900000000000A13B1
:100992000F01001D412073696D706C652064756DD7
:1009A2006D7920736C6176652E00000000000000F6
:1009B2000000657272006F6B006500696E697400F9
:00000001FF
