:1000000024C03EC03DC03CC03BC03AC039C038C02F
:1000100037C09DC135C034C033C032C031C030C0DC
:10002000A1C1A9C0D1C0CBC0D4C0D3C08CC0D1C0E5
:10003000D0C0CFC0B1C09AC0CCC0CBC0B6C0A0C0E9
:10004000C8C086C0C6C0C5C09EC011241FBECFE5B3
:10005000D2E0DEBFCDBF10E0A0E6B0E0E8EBFDE00F
:1000600002C005900D92A23FB107D9F712E0A2EFAE
:10007000B0E001C01D92A534B107E1F723D59AC6BF
:10008000BFCFDC012C91EEE3F1E0208311968C913F
:1000900080933F0180819181089580933E019093E8
:1000A0003F018093F8009093F90088EF90E0089565
:1000B000FC018081AEE3B1E08C93818180933F01AC
:1000C0008281809340018381809341016D917D9174
:1000D0008D919C9108959B01AB01BC0140933E0121
:1000E00050933F0160934001709341012093F400CD
:1000F00080913F018093F500809140018093F6004C
:10010000809141018093F70084EF90E0089563E0CF
:1001100070E08CE690E00EC262E070E080E790E074
:1001200009C290918001482F552747FD5095652FB2
:10013000752FFA01E456F109E431F10508F049C0E0
:10014000EF5EFF4F099480916A0090916B0020C090
:100150008091680090916900FC0101900020E9F70E
:10016000BF0161507109681B790BE4C18091660081
:1001700090916700F1CF63E070E083E690E0F5CF07
:100180008091620002C08091FA00992787FD9095C6
:1001900084DF62E070E0E9CFDDD37FDF62E070E012
:1001A000C9D181E08093F30008958091620098178F
:1001B00084F4892F992787FD9095DBD3CDCF80914B
:1001C000600090916100C8CF61E070E084EE90E043
:1001D000CCCF9DCF409180018E34E1F064F4863421
:1001E00099F5552747FD509561E871E080916000D1
:1001F0009091610018C0843519F08735B1F024C0A2
:10020000552747FD509561E871E080916800909115
:10021000690009C0552747FD509561E871E080915C
:10022000660090916700B3D577CF8091FA004817A8
:100230005CF4642F772767FD709581E891E03CD4EA
:1002400081E08093F200F0CF62CF009897B1962BB7
:1002500097B996B1982B96B9603831F48FE19EE446
:100260000197F1F700C00000379A089560E086E03A
:10027000ECCF009A3798089597B1907C97B997B1D1
:10028000982B97B9369A3699FECF84B125B190E074
:10029000922B0895CF92DF92EF92FF92CF93DF934C
:1002A0006A017B01E9DFEC0120E030E040E85AE33D
:1002B000C701B60193D46B017C01BE0180E090E0E0
:1002C00050D49B01AC01C701B60188D4DF91CF9116
:1002D000FF90EF90DF90CF900895CF93DF9300D001
:1002E00000D0CDB7DEB79A01AB0129833A834B83A7
:1002F0005C83C2DFBC0180E090E033D429813A8185
:100300004B815C816BD420E030E040E85AE366D456
:100310000F900F900F900F90DF91CF910895862747
:10032000682F62956827062E669566956025062ECD
:10033000669560256770082E892F669507946795E6
:10034000902D8627069467959025862708951F92FD
:100350000F920FB60F921124689A0F900FBE0F9054
:100360001F9018951F920F920FB60F9211248F9322
:100370008091F80180FF03C089B78D7F89BF80E439
:100380008EB98091F80182608093F8018FB18093DB
:10039000F6018F910F900FBE0F901F901895D59A70
:1003A0000895D598089590E29ABB9AB39F729ABB2C
:1003B0009BB390659BBB880F880F88658DB9809132
:1003C000F8018E7F8093F8018091F8018D7F8093F2
:1003D000F8018091F8018B7F8093F8018091F801FA
:1003E000877F8093F8018091F80180618093F80104
:1003F0001092F60108959EB19F7039F08091F80136
:1004000084608093F80180E008959091F8019D7FC9
:100410009093F8019091F8019B7F9093F8018FB928
:100420008091F80180FF06C088B7826088BF89B7D5
:10043000826089BF8091F80182FB882780F991E072
:10044000892708958091F60108958091F80181FF30
:10045000FCCF08950F931F93CF93DF9384E2CBDFFC
:100460008823E1F3F2DF84E2C6DF8823E1F3EDDFE6
:10047000C0E0D0E08091BA0190E08E0106541E4F9A
:10048000C817D9075CF4F8018081B5DF8823D9F358
:10049000DCDF2196CC33D10569F70BC0F8018081F0
:1004A000AADF8823D9F3D1DF8091F801806180939E
:1004B000F801DF91CF911F910F910895FF920F9353
:1004C0001F93CF93DF93C1DF8091F601843229F42B
:1004D00081E291DF8823E1F3F6CF80937E0181E012
:1004E0008093F70183E087DF0FE711E0C1E0D0E000
:1004F000ACDFF090F60183E07EDFF801F1928F012E
:100500008091F7018F5F8093F70180917E0190E0E9
:10051000C817D90721F02196CC33D10549F780912E
:10052000F8018F7E8093F801DF91CF911F910F9199
:10053000FF900895EF92FF920F931F93CF93DF9355
:10054000EB016833710574F5262F2B5F2093BA01F8
:10055000ABEBB1E0FC019F01281B390B2C173D07C9
:100560001CF421912D93F7CF8E0106541E4FF801F4
:1005700011828AEBE82E81E0F82E8FEF9FEF970132
:100580002A5B3140C217D3072CF0F70161917F013C
:10059000C6DEF5CFF8018283938383E2848381E012
:1005A00090E002C080E090E0DF91CF911F910F9129
:1005B000FF90EF900895EF92FF920F931F93CF93C8
:1005C000DF9300917E0110E0CEE7D1E08FEF9FEF47
:1005D000780124E0E21AF1089E012E5731402E15D1
:1005E0003F051CF469919BDEF7CF02581E4FF801BE
:1005F0003297208130E0322F2227F8013397408153
:10060000242B41E050E02817390711F040E050E07A
:10061000CA01DF91CF911F910F91FF90EF90089544
:10062000CF9B04C08091F801877F03C08091F801BF
:1006300088608093F8018091F80183FF02C0AFDEEB
:1006400005C0AFDE80E0D7DE8823E1F38091F801BA
:1006500083FB882780F990E00895FC0131969F0183
:10066000281B390B41914B3241F0542F5F7D5D3097
:1006700021F04A3011F04111F2CFC9010895E09103
:100680003C01F0913D0120813091370181E090E003
:10069000032E01C0880F0A94EAF780958223808395
:1006A0000895E0913A01F0913B01208130913701AA
:1006B00081E090E0032E01C0880F0A94EAF7282B0E
:1006C00020830895882319F0813011F00895D7CF41
:1006D000E0913C01F0913D0120813091370181E0B2
:1006E00090E0032E01C0880F0A94EAF7282B20839C
:1006F00008958111D6CFE0913A01F0913B0120811C
:100700003091370181E090E0032E01C0880F0A94F8
:10071000EAF7809582238083089590933D0180932A
:100720003C0170933B0160933A015093390140932F
:1007300038012093370181E0C5DF80E0DADF80E017
:1007400090E0FC013197F1F70197F1F70895E091FE
:100750003801F091390180812091370190E002C089
:10076000959587952A95E2F78170089580E0C1DF1D
:100770008BE896E00197F1F7089593DF8BE896E018
:100780000197F1F70895E3DF8111FDCF0895DFDFD1
:100790008823E9F30895CF92DF92EF92FF920F93AF
:1007A0001F93CF93DF9380E3C82E85E7D82EE12CEB
:1007B000F12CC1E0D0E0CBDF81110FC081E0C81A7D
:1007C000D108E108F1088FEFC816D806E806F80648
:1007D00041F0CE010197F1F7EECFCD28CE28CF28FA
:1007E000F9F083E493E00197F1F7C8E0D0E0EE245C
:1007F000E394F12C0BE816E0219749F0F8013197CA
:10080000F1F7A5DF811101C0FE28EE0CF5CFEBE872
:10081000F6E0DF011197F1F73197F1F78F2D01C065
:100820008FE7DF91CF911F910F91FF90EF90DF90B5
:10083000CF9008950F931F93CF93DF93082F31DF4D
:10084000EBE8F6E03197F1F7C8E0D0E011E021974E
:1008500041F0812F802311F089DF01C08EDF110F5D
:10086000F6CF802F082E82958025082E86958695B6
:1008700080258F5F81FF02C079DF01C07EDF80E0CD
:1008800038DF8BE896E00197F1F7DF91CF911F9168
:100890000F910895CF92DF92EF92FF920F931F93E3
:1008A000CF93DF931F92CDB7DEB7182F7B0181E086
:1008B000998308DFF6DEE8E8FEE53197F1F780E09E
:1008C00018DFE0EAF1E43197F1F7C12E9981D92ED2
:1008D000F60181916F01882311F0ACDFF9CFCFDEF3
:1008E0008701C12CD12C57DFF80181938F018F37FD
:1008F000D9F0FFEFCF1ADF0A81E0C816D10499F3CF
:10090000F801329780818D3029F4F8013197808188
:100910008A3021F0EBE4CE16D10429F7F701E55B2C
:10092000FF4F108281E001C080E00F90DF91CF91F6
:100930001F910F91FF90EF90DF90CF90089520E0EE
:1009400046E350E068E370E087E390E0E6DE80E0B5
:1009500090E0089569EF71E083E790E09BDF1092EB
:10096000FD018AEF91E0F6D168EE73E0E9D00895D9
:100970000895EF92FF920F931F93CF93DF9369EF48
:1009800071E088E790E086DF811103C08AE0809300
:10099000F90184E78093FB0085E68093FC008DE6F7
:1009A0008093FD0080E78093FE008AE38093FF0040
:1009B00089EF91E052DEEC0187509E4F4EDE8E01B2
:1009C000080F191FE0E0F1E0CF018B5F90407C0140
:1009D000C017D1073CF4DE01A750BE4F8C91819324
:1009E0002196F2CFFC01E550FF4F8AE3808393E428
:1009F00091839AE0928394E7938395E694839DE6AE
:100A0000958390E796838783C80187509E4F25DEA4
:100A1000E801C80FD91F98E0E90EF11CF701E55075
:100A2000FF4F0C171D075CF4D801A750BE4F8C91E7
:100A300080830F5F1F4F8FEFE81AF80AEFCF8AE32A
:100A4000808396E491839AE092839DE693839FE668
:100A5000948399E6958393E7968394E797838087B9
:100A6000CE0187509E4FF9DD8C0F9D1F9701275FA8
:100A70003F4FF901E550FF4FC817D9074CF4DE018D
:100A8000A750BE4F4C91408321962F5F3F4FF1CF2F
:100A90008AE3808387E5818386E4828386E5838396
:100AA0008AE0848315828BEF90E0DF91CF911F91D4
:100AB0000F91FF90EF90089581E090E0089581E01C
:100AC00090E008956CDC81E06EDC789438DF2FEFE5
:100AD00080E792E0215080409040E1F700C00000A4
:100AE00060E070E08CE790E025DD80E084DC98DD5C
:100AF000892BE9F3AADCA6DC843281F4DFDC5BDD40
:100B0000892B11F404DBF3CF80917F019FE9980FCB
:100B10009E3110F406DB05C05DDB03C08E3F09F497
:100B200099DC8091F300882319F022DF1092F30002
:100B30008091F2008823D9F2C2DF1092F200D7CF61
:100B40000024552704C0080E591F880F991F0097CD
:100B500029F076956795B8F37105B9F7802D952F33
:100B60000895E89409C097FB3EF4909580957095A0
:100B700061957F4F8F4F9F4F9923A9F0F92F96E9E9
:100B8000BB279395F695879577956795B795F1115E
:100B9000F8CFFAF4BB0F11F460FF1BC06F5F7F4FFB
:100BA0008F4F9F4F16C0882311F096E911C077230D
:100BB00021F09EE8872F762F05C0662371F096E816
:100BC000862F70E060E02AF09A95660F771F881FE5
:100BD000DAF7880F9695879597F908950AD080C01F
:100BE00071D028F076D018F0952309F062C067C064
:100BF000ABC087D0A8F39923D9F35523C9F3950F38
:100C000050E0551FAA27EE27FF27BB270024089492
:100C1000679520F4E20FF31FB41F0A1E220F331F43
:100C2000441FAA1F6695A9F7779530F4F30FB41FF8
:100C30000A1E121E08F46395330F441FAA1F221FB9
:100C4000769599F7879520F4B40F0A1E121E631F3C
:100C5000440FAA1F221F331F8695A9F7862F712DD7
:100C6000602D11249F5750408AF0E1F088234AF00C
:100C7000EE0FFF1FBB1F661F771F881F915050404C
:100C8000A9F79E3F510570F014C05EC05F3FECF3C2
:100C9000983EDCF3869577956795B795F795E79538
:100CA0009F5FC1F7FE2B880F911D9695879597F949
:100CB000089597F99F6780E870E060E008959FEFDE
:100CC00080EC089500240A941616170618060906E3
:100CD000089500240A9412161306140605060895B2
:100CE000092E0394000C11F4882352F0BB0F40F43A
:100CF000BF2B11F460FF04C06F5F7F4F8F4F9F4F7A
:100D0000089557FD9058440F551F59F05F3F71F0FB
:100D10004795880F97FB991F61F09F3F79F0879562
:100D20000895121613061406551FF2CF4695F1DFEB
:100D300008C0161617061806991FF1CF869571057B
:100D4000610508940895E894BB2766277727CB01AF
:100D500097F90895FC0188279927E894219120327A
:100D6000E9F3293010F02E30C8F32B3239F02D3250
:100D700031F4689403C014D0820F911D2191205347
:100D80002A30C8F31EF4909581959F4F0895FB017A
:100D9000DC0102C001900D9241505040D8F70895F7
:100DA000BC01880F991F880F991F860F971F880F06
:080DB000991F0895F894FFCF8C
:100DB8007D00011B0210D300E60068006572720016
:100DC8006F6B00314D3221003144302100412062E7
:100DD8007269646765206265747765656E207468FA
:100DE800652073656E736F722068756220616E642A
:100DF80020612053746576656E732048796472614A
:100E08002050726F62652E202050726F62652063D9
:100E18006F6E6E6563747320746F20504F52544226
:100E28003A300068796472612070726F626520627E
:100E3800726964676500687964726162726964677F
:020E4800650043
:00000001FF
