:10000000A1C0BBC0BAC0B9C0B8C0B7C0B6C0B5C047
:10001000B4C010C2B2C0B1C0B0C0AFC0AEC0ADC0FD
:1000200014C226C147C141C14AC149C109C147C122
:1000300046C145C12BC117C142C141C12CC11DC11F
:100040003EC103C13CC13BC11BC100407A10F35A01
:1000500000A0724E18090010A5D4E80000E8764808
:10006000170000E40B54020000CA9A3B000000E1B4
:10007000F505000080969800000040420F00000047
:10008000A08601000000102700000000E803000027
:1000900000006400000000000A00000000000100F1
:1000A000000000002C76D888DC674F0823DFC1DF12
:1000B000AE59E1B1B796E5E3E453C63AE651997615
:1000C00096E8E6C28426EB898C9B62ED407C6FFC4F
:1000D000EFBC9C9F40F2BAA56FA5F490055A2AF791
:1000E0005C936B6CF9676DC11BFCE0E40D47FEF59A
:1000F00020E6B500D0ED902E030094357705008002
:10010000841E080000204E0A000000C80C33333360
:10011000330F986E12831141EF8D2114893BE65500
:1001200016CFFEE6DB18D1844B381BF77C1D901DE3
:10013000A4BBE424203284725E228100C9F124EC45
:10014000A1E53D2711241FBECFE5D2E0DEBFCDBF24
:1001500010E0A0E6B0E0ECEFFEE002C005900D92EA
:10016000A83DB107D9F711E0A8EDB0E001C01D929C
:10017000AF3AB107E1F727D3BFC642CFDC012C91DC
:10018000E4EFF0E0208311968C918093F50080815C
:10019000918108958093F4009093F5008093DD00A1
:1001A0009093DE008DED90E00895FC018081A4EF36
:1001B000B0E08C9381818093F50082818093F6007A
:1001C00083818093F7006D917D918D919C9108952D
:1001D0009B01AB01BC014093F4005093F500609388
:1001E000F6007093F7002093D9008091F50080937A
:1001F000DA008091F6008093DB008091F700809315
:10020000DC0089ED90E0089563E070E08CE690E01A
:1002100008C262E070E080E790E003C2909136018E
:10022000482F552747FD5095652F752FFA01E45645
:10023000F109E431F10508F042C0EF5EFF4F099487
:1002400080916A0090916B0022C08091680090912B
:100250006900FC0101900020E9F7BF0161507109BC
:10026000681B790BDEC18091660090916700F1CF29
:1002700063E070E083E690E0F5CF8091620002C019
:100280008091DF00992787FD909501C063D282DFBE
:1002900062E070E0E7CF80916200981784F4892FC4
:1002A000992787FD909559D2D4CF80916000909185
:1002B0006100CFCF61E070E080ED90E0D3CFA4CFBC
:1002C000409136018E34E1F064F4863481F555278F
:1002D00047FD509567E371E0809160009091610067
:1002E00018C0843519F08735B1F021C0552747FD76
:1002F000509567E371E0809168009091690009C0B2
:10030000552747FD509567E371E080916600909115
:100310006700A2D37ECF8091DF00481744F4642F9A
:10032000772767FD709587E391E047D2F3CF6CCFD5
:10033000009897B1962B97B996B1982B96B96038DB
:1003400031F48FE19EE40197F1F700C00000379A85
:10035000089560E086E0ECCF009A3798089597B151
:10036000907C97B997B1982B97B9369A3699FECF6A
:1003700084B125B190E0922B0895CF92DF92EF9255
:10038000FF92CF93DF936A017B01E9DFEC0120E06C
:1003900030E040E85AE3C701B60182D26B017C012C
:1003A000BE0180E090E03FD29B01AC01C701B601E5
:1003B00077D2DF91CF91FF90EF90DF90CF900895AB
:1003C000CF93DF9300D000D0CDB7DEB79A01AB0159
:1003D00029833A834B835C83C2DFBC0180E090E0D9
:1003E00022D229813A814B815C815AD220E030E0CF
:1003F00040E85AE355D20F900F900F900F90DF9185
:10040000CF9108958627682F62956827062E6695F6
:1004100066956025062E669560256770082E892FE3
:10042000669507946795902D862706946795902585
:10043000862708951F920F920FB60F921124689A83
:100440000F900FBE0F901F9018951F920F920FB62E
:100450000F9211248F938091AE0180FF03C089B762
:100460008D7F89BF80E48EB98091AE0182608093D8
:10047000AE018FB18093AC018F910F900FBE0F90A2
:100480001F901895D59A0895D598089590E29ABB33
:100490009AB39F729ABB9BB390659BBB979A9BB78D
:1004A00090619BBF880F880F88658DB98091AE01E0
:1004B0008E7F8093AE018091AE018D7F8093AE01DF
:1004C0008091AE018B7F8093AE018091AE01877FDA
:1004D0008093AE018091AE0180618093AE01109255
:1004E000AC0108959EB19F7039F08091AE01846097
:1004F0008093AE0180E008959091AE019D7F90932E
:10050000AE019091AE019B7F9093AE018FB9809127
:10051000AE0180FF06C088B7826088BF89B782605D
:1005200089BF8091AE0182FB882780F991E08927FD
:1005300008958091AC0108958091AE0181FFFCCFB8
:1005400008950F931F93CF93DF9384E2CBDF88232B
:10055000E1F3F2DF84E2C6DF8823E1F3EDDFC0E000
:10056000D0E08091700190E08E0100591E4FC817B5
:10057000D9075CF4F8018081B5DF8823D9F3DCDF8B
:100580002196CC33D10569F70BC0F8018081AADF31
:100590008823D9F3D1DF8091AE0180618093AE01D1
:1005A000DF91CF911F910F910895FF920F931F93A9
:1005B000CF93DF93C1DF8091AC01843229F481E2D3
:1005C00091DF8823E1F3F6CF8093340181E08093BB
:1005D000AD0183E087DF05E311E0C1E0D0E0ACDFEF
:1005E000F090AC0183E07EDFF801F1928F01809101
:1005F000AD018F5F8093AD018091340190E0C81709
:10060000D90721F02196CC33D10549F78091AE016D
:100610008F7E8093AE01DF91CF911F910F91FF905C
:100620000895EF92FF920F931F93CF93DF93EB0107
:100630006833710574F5262F2B5F20937001A1E7B5
:10064000B1E0FC019F01281B390B2C173D071CF45E
:1006500021912D93F7CF8E0100591E4FF801118281
:1006600080E7E82E81E0F82E8FEF9FEF970120576B
:100670003140C217D3072CF0F70161917F01C2DE30
:10068000F5CFF8018283938383E2848381E090E055
:1006900002C080E090E0DF91CF911F910F91FF9019
:1006A000EF900895EF92FF920F931F93CF93DF93F4
:1006B0000091340110E0C4E3D1E08FEF9FEF7801A7
:1006C00024E0E21AF1089E01245331402E153F0523
:1006D0001CF4699197DEF7CF0C5C1E4FF80132973E
:1006E000208130E0322F2227F80133974081242BDC
:1006F00041E050E02817390711F040E050E0CA010E
:10070000DF91CF911F910F91FF90EF900895CF9BB4
:1007100004C08091AE01877F03C08091AE018860E4
:100720008093AE018091AE0183FF02C0ABDE05C0B5
:10073000ABDE80E0D7DE8823E1F38091AE0183FB5E
:10074000882780F990E0089560E886E0F1DD80E098
:1007500090E0089580E090E008950F931F93CF9369
:1007600082E290E0FCDD24E72093E00025E6209380
:10077000E1002DE62093E20020E72093E300CAE3A6
:10078000C093E4008E509140BC0180E090E04BD0DB
:1007900005EE10E023E045E03FD1C093EA0086E497
:1007A0008093EB008AE08093EC001092ED0080EEE5
:1007B00090E0CF911F910F91089581E090E008950E
:1007C00081E090E008955EDE81E060DE7894BCDF39
:1007D0002FEF80E792E0215080409040E1F700C089
:1007E000000060E070E08CEB90E01BDF80E07ADEE0
:1007F0008EDF892BE9F3A0DE9CDE843281F4D5DE26
:1008000051DF892B11F400DDF3CF809135019FE991
:10081000980F9E3110F402DDEBCF52DDE9CF8E3F11
:1008200039F78FDEE5CFE89409C097FB3EF4909549
:100830008095709561957F4F8F4F9F4F9923A9F0B9
:10084000F92F96E9BB279395F69587957795679548
:10085000B795F111F8CFFAF4BB0F11F460FF1BC08C
:100860006F5F7F4F8F4F9F4F16C0882311F096E91F
:1008700011C0772321F09EE8872F762F05C06623CD
:1008800071F096E8862F70E060E02AF09A95660F86
:10089000771F881FDAF7880F9695879597F908953F
:1008A0000AD080C071D028F076D018F0952309F0D6
:1008B00062C067C0ABC087D0A8F39923D9F3552392
:1008C000C9F3950F50E0551FAA27EE27FF27BB2736
:1008D00000240894679520F4E20FF31FB41F0A1E4A
:1008E000220F331F441FAA1F6695A9F7779530F48E
:1008F000F30FB41F0A1E121E08F46395330F441F32
:10090000AA1F221F769599F7879520F4B40F0A1E27
:10091000121E631F440FAA1F221F331F8695A9F7BB
:10092000862F712D602D11249F5750408AF0E1F0E1
:1009300088234AF0EE0FFF1FBB1F661F771F881F1B
:1009400091505040A9F79E3F510570F014C05EC011
:100950005F3FECF3983EDCF3869577956795B79506
:10096000F795E7959F5FC1F7FE2B880F911D969530
:10097000879597F9089597F99F6780E870E060E0A0
:1009800008959FEF80EC089500240A941616170628
:1009900018060906089500240A9412161306140670
:1009A00005060895092E0394000C11F4882352F0D3
:1009B000BB0F40F4BF2B11F460FF04C06F5F7F4F8B
:1009C0008F4F9F4F089557FD9058440F551F59F072
:1009D0005F3F71F04795880F97FB991F61F09F3F2C
:1009E00079F087950895121613061406551FF2CF55
:1009F0004695F1DF08C0161617061806991FF1CFA5
:100A000086957105610508940895E894BB276627CB
:100A10007727CB0197F90895EF920F931F93CF9308
:100A2000DF93E80147FF02C034E101C034E0E42F66
:100A3000FF27E7FDF095F7FF03C0F195E195F10978
:100A4000E32E022F2E2FAE0110D0CE01DF91CF91D9
:100A50001F910F91EF900895FB01DC0102C00190FE
:100A60000D9241505040D8F708958F929F92BF92B7
:100A7000CF92DF92EF92FF920F931F93CF93DF936A
:100A8000CDB7DEB729970FB6F894DEBF0FBECDBF46
:100A90006A01B22E102F0C3320F4FF24F394F00ED1
:100AA00002C0ECE3FE2E0F2D27E0AE014F5F5F4F3B
:100AB0004BD17981272F2970213031F0E1FC06C01C
:100AC000E0FC06C060E005C06DE203C06BE201C05F
:100AD00060E2AE2DA07173FF36C0662311F084E092
:100AE00001C083E08B1510F4B81A01C0B12CA1111C
:100AF0000BC0F6018B2D90E2882319F09193815061
:100B0000FBCFCB0CD11CB12C662331F0F6016083F6
:100B100096012F5F3F4F6901C6010396E2FE05C0B3
:100B20002EE4F601208331E404C02EE6F601208392
:100B300031E631832283FC012B2D30E22223F1F1B7
:100B400031932150FBCF72FF40C0662311F084E047
:100B500001C083E08B1510F4B81A01C0B12CA111AB
:100B60000BC0F6018B2D90E2882319F091938150F0
:100B7000FBCFCB0CD11CB12C662331F0F601608386
:100B800096012F5F3F4F6901C6010396E2FE07C041
:100B900029E4F60120832EE4218326E406C029E619
:100BA000F60120832EE6218326E62283FC012B2DED
:100BB00030E2222319F031932150FBCFFC01EB0DE1
:100BC000F11D10828EEF9FEFADC0B1E0611101C049
:100BD000B0E04B2F50E01816190624F49C012F5F4B
:100BE0003F4F02C021E030E0240F351F112329F0D0
:100BF000412F50E04F5F5F4F02C040E050E0420F96
:100C0000531F2B2D30E04217530714F4B41A01C0C0
:100C1000B12C2E2D287159F4F6012B2D30E2222310
:100C200019F031932150FBCFCB0CD11CB12CBB233D
:100C300031F0F601608396012F5F3F4F6901A111EA
:100C40000BC0F6012B2D30E3222319F031932150F4
:100C5000FBCFCB0CD11CB12CF80E0A81372F307191
:100C6000E32E74FF03C0013309F4FA941F142CF42B
:100C70002F2D293018F028E001C021E0AC0197FFAA
:100C800002C040E050E03EE2F32EBC01621B71095D
:100C90009B0188248394912C8C0E9D1E880E991E96
:100CA000A12FB0E0B195A195B1094F3F7FEF570754
:100CB00031F4F601F082B6016F5F7F4F6B0184174C
:100CC00095074CF02417350734F4B401641B750BF9
:100CD000FB01118101C010E341505109B6016F5F62
:100CE0007F4F4A175B0724F0F60110836B01DDCFBD
:100CF0004817590739F4063320F4053319F4E11085
:100D000001C011E3F6011083FB018B2D90E28823D3
:100D100019F091938150FBCFFB01EB0DF11D108277
:100D200080E090E029960FB6F894DEBF0FBECDBFED
:100D3000DF91CF911F910F91FF90EF90DF90CF90B7
:100D4000BF909F908F900895283008F027E03327B8
:100D5000DA01990F311D87FD9160009661057105DB
:100D600039F432602E5F3D9330E32A95E1F7089520
:100D70009F3F30F080387105610509F03C5F3C5FB2
:100D80003D93913008F08068911DDF93CF931F93BE
:100D90000F93FF92EF92192F987F9695E92F9695D2
:100DA0009695E90FFF27EC55FF4F99273327EE243F
:100DB000FF24A701E70105900894079428F4360F53
:100DC000E71EF81E491F511D660F771F881F991FC8
:100DD0000694A1F70590079428F4E70EF81E491F22
:100DE000561FC11D770F881F991F661F0694A1F714
:100DF0000590079428F4F80E491F561FC71FD11DF0
:100E0000880F991F661F771F0694A1F70590079416
:100E100020F4490F561FC71FD81F990F661F771F51
:100E2000881F0694A9F784911095177041F0D69504
:100E3000C79557954795F794E7941A95C1F7EAE453
:100E4000F0E0689415901591359165919591059014
:100E50007FE27395E118F10A430B560BC90BD009D9
:100E6000C0F7E10CF11E431F561FC91FD01D7EF4B1
:100E7000703311F48A95E6CFE894015030F0080FF2
:100E80000AF40027021708F4202F2395022F7A3343
:100E900028F079E37D932A95E9F710C07D932A9590
:100EA00089F6069497956795379517951794E118E5
:100EB000F10A430B560BC90BD00998F023957E918C
:100EC00073957A3308F070E37C932013B8F77E9122
:100ED00070617D9330F0839571E37D9370E32A9583
:100EE000E1F71124EF90FF900F911F91CF91DF91C7
:0C0EF000992787FD90950895F894FFCF96
:100EFC007300011B0210BD00D20066006572720007
:100F0C006F6B00412073696D706C65204144432008
:100F1C0074656D70757261747572652073656E732E
:100F2C006F72207573696E672074686520417474E4
:100F3C00696E793834277320696E74656E616C2024
:100F4C00746865726D6F6D657465722E00696E7470
:100F5C0065726E616C2074656D70757261747572FA
:080F6C0065006974656D7000F9
:00000001FF
